:1000000088C00000A2C00000A0C000009EC0000088
:100010009CC000009AC0000098C0000096C000007C
:1000200094C0000092C0000090C0000006C600000E
:10003000A8C600008AC0000088C0000086C000007A
:1000400084C0000082C0000080C000000DC200001B
:100050007CC000007AC0000078C00000A6C000008C
:1000600074C0000072C0000070C000006EC00000CC
:100070006CC0000030034C005500460041002000D9
:100080005500530042002D0052005300320033004F
:1000900032002000410064006100700074006500BF
:1000A0007200000018034400650061006E0020002B
:1000B000430061006D0065007200610000000403F0
:1000C000090409023E00020100C0320904000001D7
:1000D0000202010005240010010424020605240682
:1000E0000001070582030800FF09040100020A005D
:1000F0000000070504021000050705830210000533
:100100001201100102000008EB034B200000010265
:10011000DC0111241FBECFEFD4E0DEBFCDBF12E063
:10012000A0E0B1E0E4EFF5E102C005900D92AE3041
:10013000B107D9F712E0AEE0B2E001C01D92A13BD9
:10014000B107E1F78DD00C94F80A5ACF95B19F739F
:100150009068982B95B90895EDE1F1E0A081B18107
:100160006C93808191810196918380832681378170
:100170008217930721F484819581918380832FB71F
:10018000F894828593850196938782872FBF08957F
:10019000CF93C82F8A3021F46DE08DE191E0DCDF50
:1001A0006C2F8DE191E0CF91D7CF1F920F920FB6B8
:1001B0000F9211242F933F934F935F936F937F93ED
:1001C0008F939F93AF93BF93EF93FF936091CE0074
:1001D0008EB3843019F48BE191E0B7D2FF91EF91A7
:1001E000BF91AF919F918F917F916F915F914F914F
:1001F0003F912F910F900FBE0F901F90189584B7CD
:10020000877F84BF88E10FB6F894809360001092D6
:1002100060000FBE87E284B988E385B980E287B9C0
:1002200018B888E08AB984E48BB980E180938000B3
:1002300010928B0010928A0089E08093810090E0F8
:1002400080E80FB6F89480936100909361000FBE30
:1002500030D184B1806C84B92E98E0D4F2D2A2C29D
:10026000CF93DF93CDB7DEB729970FB6F894DEBFF3
:100270000FBECDBF8EEF91E09093AE028093AD02A2
:10028000BEDF8BE191E0D5D180E460DF4AE050E051
:1002900060E070E08E010F5F1F4FC80147D1789476
:1002A000D02EC12E8DE1E82E81E0F82E80E091E085
:1002B0000E94C609892B19F08BE191E052D28FB7C9
:1002C000F89400912701109128018FBF8D2D9C2D4E
:1002D00055D181110CC00115110549F48BE191E054
:1002E000E0D180E091E00E94B809B2D7DFCF8D2D38
:1002F0009C2D37D125C0E0911F01F0912001608134
:1003000080E091E0E5D78111E9CFF70122813381C7
:100310002F5F3F4F33832283468157812417350750
:1003200021F424813581338322838FB7F894228589
:10033000338521503109338722878FBF015011093E
:1003400001151105C1F6CACF80EC00CF80E4FECEC6
:1003500080E091E098D7882311F080E801C080E424
:10036000F5CE80E091E00C94190ACF93FC01A18DA9
:10037000A150A23028F4B0E0A45FBD4FCC9101C0E1
:10038000C0E0808D823009F4C860828D873031F002
:10039000883031F0863029F4C26003C0C46001C0E7
:1003A000C6601092C9001092C8001092CA00248939
:1003B000358946895789CA01B901969587957795F8
:1003C000679560587B47814E9F4F0E94D60A215007
:1003D00031093093CD002093CC00C093CA0082E055
:1003E0008093C80088E98093C900CF910895292F90
:1003F00033272230310539F02330310549F02130DF
:10040000310521F128C0EEE3F0E082EC90E027C056
:1004100099278130910561F08230910581F0892B17
:10042000D1F4EEEBF0E0E491F0E08EEB90E017C059
:10043000E4EAF0E0E491F0E084EA90E010C0E4E760
:10044000F0E0E491F0E084E790E009C0E2E1F0E060
:1004500080E091E004C0E0E0F0E080E090E0DA01CC
:100460008D939C93CF0108951F920F920FB60F9218
:1004700011248F939F93AF93BF9380910E0290911D
:100480000F02A0911002B09111020196A11DB11DA1
:1004900080930E0290930F02A0931002B09311026A
:1004A000BF91AF919F918F910F900FBE0F901F90B2
:1004B000189510920E0210920F02109210021092D4
:1004C0001102EEE6F0E080818260808389EF87BDD3
:1004D00082E084BD83E085BD08950F931F93CF9381
:1004E000DF9300D000D0CDB7DEB719821A821B820D
:1004F0001C82F89480910E0290910F02A09110023C
:10050000B091110289839A83AB83BC83789409816B
:100510001A812B813C81B801C9010F900F900F9077
:100520000F90DF91CF911F910F910895CF92DF929D
:10053000EF92FF92CF93DF93EC016A017B0181E0A0
:100540008883CBDF69837A838B839C83CD82DE8231
:10055000EF82F886DF91CF91FF90EF90DF90CF9000
:100560000895CF93DF93EC0181E08883B6DF698340
:100570007A838B839C83DF91CF9108958F929F9292
:10058000AF92BF92CF92DF92EF92FF920F931F93A1
:10059000CF93DF93EC01A1DF2881222309F10981A8
:1005A0001A812B813C81CD80DE80EF80F8844B0165
:1005B0005C01801A910AA20AB30A061717072807D6
:1005C000390730F4C814D904EA04FB0448F405C020
:1005D0008C149D04AE04BF0418F0188281E001C0A1
:1005E00080E0DF91CF911F910F91FF90EF90DF900E
:1005F000CF90BF90AF909F908F900895FC01A08105
:10060000B1816C9380819181019691838083268151
:1006100037818217930721F48481958191838083A8
:100620002FB7F894828593850196938782872FBF91
:1006300008959C01225F3F4FFC0132964FB7F8941A
:10064000318320833383228335832483DC01A257C3
:10065000BF4FB783A68320E830E031872087138619
:1006600012864FBF9C012D553F4FFC01E956FF4FAD
:100670004FB7F894318320833383228335832483D7
:100680008D519F4F9783868380E490E09187808788
:10069000138612864FBF44EF51E060E070E0CD0159
:1006A00045CFCF92DF92EF92FF920F931F93CF939C
:1006B000DF93EC018C0102571F4FC8015FDF8823D5
:1006C00009F43AC08FB7F8947E0197E9E90EF11C5E
:1006D000F701D2848FBFD1100AC0C801DF91CF913A
:1006E0001F910F91FF90EF90DF90CF903ACF22961D
:1006F00065E0CE0183DF6D2DCE0180DFC12CF701D7
:10070000A281B3816D91B383A28386819781A8175B
:10071000B90721F484819581938382832FB7F8945C
:10072000828593850197938782872FBFCE0166DFED
:10073000C394CD1420F3D1CFDF91CF911F910F91AE
:10074000FF90EF90DF90CF900895CF93DF93EC016F
:1007500089569F4F53DFCE0182579F4FDF91CF9134
:1007600000CF0F931F93CF93DF938C01EC01229660
:100770000EC081D0882359F0BFD0882311F060E8E3
:1007800001C061E8CE013ADF60E0CE0137DFF80159
:100790008081918121D697FFECCFDF91CF911F917E
:1007A0000F910895209A289A84B1866084B923987D
:1007B0002B9A8DB581608DBD209881E58CBD209AE6
:1007C000289A08952D988AE18A95F1F700C02D9A0C
:1007D0009AE19A95F1F700C028EE33E008C0215065
:1007E00031098FE99FE00197F1F700C000001C99E3
:1007F00004C02115310599F703C081E0232B09F4CA
:1008000080E008958EBD0DB407FEFDCF0895E2E1AE
:10081000F2E0A281B3818D91B383A28326813781D7
:10082000A217B30721F424813581338322839FB734
:10083000F8942285338521503109338722879FBF61
:100840000895E2E1F2E02FB7F8948EE192E091830F
:10085000808393838283958384838EE992E0978358
:10086000868380E890E091878087138612862FBF69
:1008700010929E0208959FB7F89420911C02309127
:100880001D029FBF2115310521F48A3048F080E018
:1008900008952130310521F4982F9E5F90939E0298
:1008A000E2E1F2E0A081B1818C9380819181019697
:1008B00091838083268137818217930721F4848175
:1008C0009581918380832FB7F894828593850196D3
:1008D000938782872FBF8FB7F89420911C023091A5
:1008E0001D028FBF80919E0290E02817390779F68C
:1008F00010929E0281E00895CF93DF9382E192E00F
:1009000086DFC82F82E192E082DFD82FC13019F450
:10091000DF91CF9157CFC23099F485B190E4892708
:1009200085B9C0E005C082E192E071DF6BDFCF5F87
:10093000CD13F9CF4E9943C083B1829581706EC0BB
:10094000C73081F4209A289A84B1866084B92398AC
:100950002B9A8DB581608DBD209881E58CBD209A44
:10096000289A2DC0C33081F485B1805885B9C0E084
:1009700008C082E192E04BDF8EBD0DB407FEFDCFD3
:10098000CF5FCD13F6CF1BC0C43049F482E192E0B3
:100990003EDF882311F05B9812C05B9A10C0C6300E
:1009A00081F484B1897F84B985B1867F85B91CBC07
:1009B0001DBC85B1897F85B984B1866084B981E029
:1009C0002DC0C53081F40BC082E192E020DF909110
:1009D000C80095FFFCCF8093CE00CF5F01C0C0E080
:1009E000CD13F2CFECCFC83039F4299A8AE18A9539
:1009F000F1F700C02998E3CFC93061F42A9A8AE15F
:100A00008A95F1F700C02A98DACF82E192E0FFDE02
:100A1000CF5F01C0C0E0CD13F8CF80E0DF91CF9170
:100A20000895982F2CC09093E900981739F0709191
:100A3000EC002091ED005091F00003C0242F762FA0
:100A400050E021FD02C09F5F1AC03091EB003E7F55
:100A50003093EB003091ED003D7F3093ED0030910D
:100A6000EB0031603093EB007093EC002093ED00CD
:100A70005093F0002091EE0027FDE5CF07C09530A0
:100A800090F28F708093E90081E0089580E00895EE
:100A90000F931F93CF93DF93062FEC0110E02EC02E
:100AA0009881911103C01F5F259628C02C81E98190
:100AB000FA816B81892F8F70853010F080E021C022
:100AC000223010F056E001C052E028E030E040E073
:100AD00003C04F5F220F331F2E173F07D0F34295FD
:100AE000407F452B991F9927991F6295660F660FC6
:100AF000607C692B96DF8111D6CFE0CF1013D0CF69
:100B000081E0DF91CF911F910F9108958091A30211
:100B100087FD05C08091E80080FF0DC010C0809166
:100B2000E80082FD04C08EB38111F9CF0895809151
:100B3000E8008B7707C08EB38111ECCF08958091C8
:100B4000E8008E778093E80008958091E40090910A
:100B5000E50045E62091EC0020FD1EC022C02EB32A
:100B6000222391F0253091F02091EB0025FD10C05B
:100B70002091E4003091E5002817390759F34150DE
:100B8000C90141F784E0089582E0089583E0089563
:100B900081E0089580E008952091E80020FFDFCFF4
:100BA000F9CF2091E80022FFDACFF4CF40D042D035
:100BB0008091D8008F778093D8008091D80080688A
:100BC0008093D8008091D8008F7D8093D80084E0F6
:100BD00089BD86E089BD09B400FEFDCF1EBA109222
:100BE0009F021092A1021092A00242E060E080E019
:100BF00018DF8091E1008E7F8093E1008091E20018
:100C000081608093E2008091E20088608093E2003E
:100C10008091E0008E7F8093E0000895E3E6F0E0AD
:100C200080818E7F808381E08093A202BFCF10926B
:100C3000E20008951092E10008951F920F920FB6FE
:100C40000F9211242F933F934F935F936F937F9352
:100C50008F939F93AF93BF93EF93FF938091E100A6
:100C600082FF0AC08091E20082FF06C08091E1000D
:100C70008B7F8093E100EBD28091E10080FF16C072
:100C80008091E20080FF12C08091E2008E7F80930D
:100C9000E2008091E20080618093E2008091D800C0
:100CA00080628093D80019BC1EBA50DB8091E100AD
:100CB00084FF2CC08091E20084FF28C084E089BDBD
:100CC00086E089BD09B400FEFDCF8091D8008F7DFC
:100CD0008093D8008091E1008F7E8093E100809125
:100CE000E2008F7E8093E2008091E2008160809339
:100CF000E20080919F02811104C08091E30087FF90
:100D000002C084E001C081E08EBB1EDB8091E10067
:100D100083FF26C08091E20083FF22C08091E10022
:100D2000877F8093E10082E08EBB10929F028091CA
:100D3000E1008E7F8093E1008091E2008E7F8093BE
:100D4000E2008091E20080618093E20042E060E096
:100D500080E067DE8091F00088608093F00077D2B9
:100D6000FF91EF91BF91AF919F918F917F916F9183
:100D70005F914F913F912F910F900FBE0F901F9059
:100D800018951F920F920FB60F9211242F933F9335
:100D90004F935F936F937F938F939F93AF93BF9383
:100DA000CF93EF93FF938091E9008F709091EC00C7
:100DB00090FF02C090E801C090E0C92FC82B1092AC
:100DC000E9008091F000877F8093F0007894D9D07B
:100DD0001092E9008091F00088608093F000CF705D
:100DE000C093E900FF91EF91CF91BF91AF919F9197
:100DF0008F917F916F915F914F913F912F910F90C4
:100E00000FBE0F901F9018952091A9023091AA0251
:100E10002617370748F06115710539F42091E8006D
:100E20002E772093E80001C0B9019C0180E033C017
:100E30009EB3992309F442C0953009F441C09091C2
:100E4000E80093FD39C09091E80092FD2FC0909189
:100E5000E80090FF20C08091F20090E0F901821B31
:100E6000930B05C021912093F100615071099F01FE
:100E7000280F391F6115710519F02830310590F3DD
:100E800081E02830310509F080E09091E8009E77FC
:100E90009093E8009F016115710551F68111C8CF4B
:100EA00005C08EB3882351F0853051F08091E80061
:100EB00082FFF7CF80E0089581E0089582E00895F1
:100EC00083E008952091A9023091AA0226173707DE
:100ED00048F06115710539F42091E8002E772093D0
:100EE000E80001C0B9019C0180E034C09EB39923A1
:100EF00009F443C0953009F442C09091E80093FD95
:100F00003AC09091E80092FD30C09091E80090FFC7
:100F100021C08091F20090E0F901821B930B06C082
:100F200024912093F1003196615071099C012E0F9C
:100F30003F1F6115710519F02830310588F381E0F4
:100F40002830310509F080E09091E8009E77909379
:100F5000E8009F016115710549F68111C7CF05C0F1
:100F60008EB3882351F0853051F08091E80082FFE4
:100F7000F7CF80E0089581E0089582E0089583E04E
:100F80000895EF92FF920F931F93CF93DF93CDB706
:100F9000DEB7AC970FB6F894DEBF0FBECDBFE3EA65
:100FA000F2E08091F100819322E0EB3AF207C9F779
:100FB000D8D98091E80083FF2FC18091A30290913E
:100FC000A402953009F487C038F49130B1F170F083
:100FD000933009F021C131C0983009F4F3C0993041
:100FE00009F4FFC0963009F017C19BC0803821F08A
:100FF000823809F011C108C08091A0029091A1022D
:10100000992389F082600FC08091A7029091A80275
:101010008F7099278093E9008091EB0085FB8827EA
:1010200080F91092E9009091E800977F9093E80092
:101030008093F1001092F100D0C0882319F0823023
:1010400009F0EAC08F7121F0823009F0E5C00BC0D1
:101050008091A502813009F0DFC0933009F080E073
:101060008093A1022FC08091A50281112BC0809195
:10107000A7029091A8028F709927009709F4CCC01D
:101080008093E9002091EB0020FF1CC02091A40276
:10109000233021F48091EB00806212C09091EB002C
:1010A00090619093EB0021E030E001C0220F8A951F
:1010B000EAF72093EA001092EA008091EB00886042
:1010C0008093EB001092E9008091E800877F809385
:1010D000E8001CDDA1C081119FC00091A502109104
:1010E000A6020F771127E02EFFB6F8948091E80052
:1010F000877F8093E8000ADD8091E80080FFFCCFC5
:101100008091E3008078802B8093E3008068809357
:10111000E300EE2011F083E001C082E08EBBFFBE51
:101120007BC08058823008F077C08091A5029091F2
:10113000A6028C3D23E0920771F583E08A838AE260
:1011400089834FB7F894DE01139620E03EE051E228
:10115000E32FF0E050935700E49120FF03C0E295A5
:10116000EF703F5FEF708E2F90E0EA3010F0C7967F
:1011700001C0C0968D939D932F5F243149F74FBFD7
:101180008091E800877F8093E8006AE270E0CE01FA
:1011900001963ADE11C0AE01455D5F4F6091A70236
:1011A00026D90097C9F12091E800277F2093E80015
:1011B000BC018BA59CA586DE8091E8008B7780938F
:1011C000E8002AC0803841F58091E800877F80934D
:1011D000E80080919F028093F1008091E8008E7773
:1011E00076CF811119C09091A5029230A8F4809118
:1011F000E800877F8093E80090939F0287DC8091CE
:101200009F02811104C08091E30087FF02C084E047
:1012100001C081E08EBB9CD88091E80083FF0AC0AA
:101220008091EB0080628093EB008091E800877FE3
:101230008093E800AC960FB6F894DEBF0FBECDBF2A
:10124000DF91CF911F910F91FF90EF900895089536
:10125000CF938EB38823A9F08091E9008F7090918D
:10126000EC0090FF02C090E801C090E0C92FC82BAD
:101270001092E9008091E80083FD83DECF70C09377
:10128000E900CF910895CF93DF93EC014096FC01E4
:101290008BE0DF011D928A95E9F782E08C838987D4
:1012A00083E08E8761E0CE010196F2DB882361F056
:1012B00061E0CE010696ECDB882331F061E0CE01DF
:1012C0000B96DF91CF91E4CB80E0DF91CF91089531
:1012D000CF93C62F2EB32430F1F4FC0144895589F5
:1012E00066897789452B462B472BA9F081818F7022
:1012F0008093E9008091E80085FF04C0C093F1006D
:1013000080E00AC08091E8008E778093E8001DDCC1
:101310008823A1F301C082E0CF9108952EB3243039
:1013200029F5FC014489558966897789452B462B27
:10133000472BE1F081818F708093E9008091F2006A
:10134000811102C080E008959091E8008091E8004A
:101350008E778093E80095FDF5CFF7DB811107C00C
:101360009091E8009E779093E800089582E00895B8
:101370002EB3243051F4FC0144895589668977895C
:10138000452B462B472B09F0C9CF08952EB32430A7
:1013900009F01AC0FC014489558966897789452B73
:1013A000462B472B89F086818F708093E9008091CE
:1013B000E80082FF09C08091F200811108C080918D
:1013C000E8008B778093E80020E030E003C02091B4
:1013D000F20030E0C90108952EB3243019F02FEF48
:1013E0003FEF24C0FC014489558966897789452BE4
:1013F000462B472BA1F386818F708093E900809163
:10140000E80082FFECCF8091F200882321F0209148
:10141000F10030E002C02FEF3FEF8091F200811128
:1014200005C08091E8008B778093E800C90108959A
:1014300008950F931F93CF93DF93EC018091E80001
:1014400083FFAFC0888190E02091A7023091A8026D
:101450002817390709F0A5C08091A402813261F0F4
:1014600020F4803209F09DC03FC0823209F471C07F
:10147000833209F096C083C08091A302813A09F0BB
:1014800090C08091E800877F8093E8008091E80019
:1014900080FFFCCF4C895D896E897F894093F10084
:1014A000052F162F272F33270093F1008B012227BA
:1014B00033270093F100472F55276627772740935E
:1014C000F100888D8093F100898D8093F1008A8DE1
:1014D0008093F1008091E8008E778093E800DF919F
:1014E000CF911F910F9112CB8091A302813209F00D
:1014F00058C08091E800877F8093E80004C08EB3D5
:10150000882309F44EC08091E80082FFF8CF309123
:10151000F1002091F1009091F1008091F1003C8B5D
:101520002D8B9E8B8F8B8091F100888F8091F100A5
:10153000898F8091F1008A8F8091E8008B7780936A
:10154000E800E4DACE01DF91CF911F910F910C9466
:10155000B5018091A302813221F58091E800877F57
:101560008093E800D3DA8091A5029091A602998B2E
:10157000888BCE01DF91CF911F910F9159CF809130
:10158000A302813271F48091E800877F8093E800A4
:10159000BDDA6091A502CE01DF91CF911F910F912D
:1015A00047CFDF91CF911F910F910895A1E21A2E9D
:1015B000AA1BBB1BFD010DC0AA1FBB1FEE1FFF1FF7
:1015C000A217B307E407F50720F0A21BB30BE40B47
:1015D000F50B661F771F881F991F1A9469F760958E
:1015E0007095809590959B01AC01BD01CF01089548
:0415F000F894FFCF9D
:1015F40000831000000104100000018208000001B3
:1016040000000000000000000000000001000000D5
:1016140000000000000000000000000000000000C6
:1016240000000000000000000000000000000000B6
:1016340000000000000000000000000000000000A6
:101644000000000000000000000000000000000096
:101654000000000000000000000000000000000086
:101664000000000000000000000000000000000076
:101674000000000000000000000000000000000066
:101684000000000000000000000000000000000056
:101694000000000000000000000000000000000046
:1016A4000000000000000000000000000000000036
:1016B4000000000000000000000000000000000026
:1016C4000000000000000000000000000000000016
:1016D4000000000000000000000000000000000006
:1016E40000000000000000000000000000000000F6
:0E16F400000200000000C800000000003020CE
:00000001FF
